S01800004E616E6F4172636869746563747572652E737265639D
S11300000C943C000C9459000C9459000C94590025
S11300100C9459000C9459000C9459000C945900F8
S11300200C9459000C9459000C9459000C945900E8
S11300300C9459000C9459000C9459000C945900D8
S11300400C9459000C9459000C9459000C945900C8
S11300500C9459000C9459000C9459000C945900B8
S11300600C9459000C945900A600B400C200D000AE
S1130070DE00EC00FA00080111241FBECFEFD8E027
S1130080DEBFCDBF11E0A0E0B1E0E4E1FAE002C0E0
S113009005900D92A83CB107D9F721E0A8ECB1E096
S11300A001C01D92A03DB207E1F70E945B000C94D1
S11300B008050C940000CF93DF93CDB7DEB72F97DC
S11300C00FB6F894DEBF0FBECDBFFE0131968EE0B1
S11300D0DF011D928A95E9F782E08C8388EB91E039
S11300E09A878987F093CD01E093CC018BE491E06A
S11300F00E9462018DE691E00E9465016FEF80E04D
S11301000E9450016FEF82E00E94500100E011E074
S1130110BE01615F7F4F81E00E949B018F851F922A
S11301208F931F930F930E942A020F900F900F90AA
S11301300F90EF858E2F90E0FC01F197E830F105E8
S113014008F074C0EC5CFF4F0C94240260E080E083
S11301500E941F01BFEF23ED80E3B1502040804097
S1130160E1F700C00000D4CF61E080E00E941F01ED
S11301709FEFA3EDB0E39150A040B040E1F700C081
S11301800000C6CF60E081E00E941F012FEF83EDE5
S113019090E3215080409040E1F700C00000B8CFC8
S11301A061E081E00E941F01AFEFB3ED20E3A150B5
S11301B0B0402040E1F700C00000AACF60E086E133
S11301C00E941F018FEF93EDA0E381509040A04067
S11301D0E1F700C000009CCF61E086E10E941F01AE
S11301E0BFEF23ED80E3B15020408040E1F700C031
S11301F000008ECF60E087E10E941F019FEFA3ED16
S1130200B0E39150A040B040E1F700C0000080CFBF
S113021061E087E10E941F012FEF83ED90E32150FD
S113022080409040E1F700C0000072CF6FEF82E0A1
S11302300E9450016FEF80E00E94500169CFE82FC7
S1130240F0E0EE0FFF1FED5FFE4F3081E181613082
S113025099F4F0E0EE0FFF1FEB5BFE4F0190F0818D
S1130260E02D208181E090E002C0880F991F3A952B
S1130270E2F7822B80830895F0E0EE0FFF1FEB5B23
S1130280FE4F0190F081E02D208181E090E002C0DA
S1130290880F991F3A95E2F7809582238083089509
S11302A090E0880F991FFC01E15CFE4F0190F08102
S11302B0E02D2081FC01EB5BFE4F0190F081E02DED
S11302C0608308950E94CE010895CF93DF93EC01DB
S11302D08A819B810E94F201888199819093C9014E
S11302E08093C801DF91CF9108952091C801309186
S11302F0C901F90195E1899FE00DF11D11240180E7
S1130300F281E02D808185FB882780F991E089279F
S113031008952091C8013091C901F90195E1899F9F
S1130320E00DF11D11240180F281E02D8081881FF0
S11303308827881F08950F931F93CF93C82F8B018D
S11303408C2F0E9489018823D9F3E091C801F09190
S1130350C90185E1C89FE00DF11D11240380F481DA
S1130360E02D8081F8018083CF911F910F91089532
S1130370CF93C82F8A3019F48DE00E94B80180E031
S11303800E9475018130D9F3E091C801F091C9014F
S11303900380F481E02DC083CF910895CF93DF9340
S11303A0DC0112968D919C911397892BC1F040E04A
S11303B050E020E030E0ED91FC911197E40FF51F3F
S11303C0C081D181828188832F5F3F4F4D5F5F4F12
S11303D012968D919C9113972817390760F3DF913A
S11303E0CF910895CF93DF931F92CDB7DEB7BC01B1
S11303F0DC0112968D919C911397892B09F140E0B1
S113040050E020E030E0DB01ED91FC91E40FF51FBA
S1130410A081B1818C918983898192819823998368
S113042089819381982B998389818C932F5F3F4F86
S11304304C5F5F4FFB01828193812817390718F3C2
S11304400F90DF91CF910895EE0FFF1F0590F49167
S1130450E02D0994A0E0B0E0E0E3F2E00C94E104C4
S1130460AE014B5F5F4FFA0161917191AF018091D1
S1130470CC019091CD010E944002E2E00C94FD0475
S1130480ABE0B0E0E6E4F2E00C94D1046C017B0153
S11304908A01FC0117821682838181FFCCC1CE01BF
S11304A001963C01F6019381F70193FD859193FF39
S11304B081917F01882309F4BAC1853239F493FD0F
S11304C0859193FF81917F01853229F4B60190E0F3
S11304D00E943704E7CF912C212C312CFFE1F31536
S11304E0D8F08B3279F038F4803279F08332A1F489
S11304F0232D20611DC08D3261F0803369F4232DDA
S1130500216016C0832D8260382EE32DE4603E2ED8
S11305102AC0F32DF8601DC037FC2DC020ED280F34
S11305202A3040F08E32B9F436FC81C1232D206488
S1130530322E19C036FE06C08AE0989E200D112482
S1130540922E11C0EAE02E9E200D1124222EF32DAE
S1130550F0623F2E08C08C3621F4832D8068382E3B
S113056002C0883641F4F70193FD859193FF819190
S11305707F018111B3CF982F9F7D9554933028F438
S11305800C5F1F4F9FE399830DC0833631F083378F
S113059071F0833509F059C021C0F8018081898345
S11305A00E5F1F4F88248394912C530113C028019C
S11305B0F2E04F0E511CF801A080B18036FE03C05A
S11305C0692D70E002C06FEF7FEFC5010E942C041B
S11305D04C018201F32DFF773F2E16C0280122E043
S11305E0420E511CF801A080B18036FE03C0692D73
S11305F070E002C06FEF7FEFC5010E9421044C013F
S1130600F32DF0683F2E820133FC1BC0822D90E055
S113061088169906B0F4B60180E290E00E9437048F
S11306202A94F4CFF50137FC859137FE81915F015F
S1130630B60190E00E94370421102A9421E0821A26
S113064091088114910471F7E8C0843611F0893659
S113065041F5F80137FE07C0608171818281938181
S11306600C5F1F4F08C060817181072E000C880B3E
S1130670990B0E5F1F4FF32DFF763F2E97FF09C096
S113068090958095709561957F4F8F4F9F4FF0683F
S11306903F2E2AE030E0A3010E947304882E8618BE
S11306A045C0853731F4232D2F7EB22E2AE030E069
S11306B025C0932D997FB92E8F36C1F018F4883553
S11306C079F0B5C0803719F0883721F0B0C0E92F30
S11306D0E061BE2EB4FE0DC0FB2DF460BF2E09C038
S11306E034FE0AC0292F2660B22E06C028E030E06E
S11306F005C020E130E002C020E132E0F801B7FE9D
S113070007C060817181828193810C5F1F4F06C095
S11307106081718180E090E00E5F1F4FA3010E9411
S11307207304882E8618FB2DFF773F2E36FE0DC0EE
S1130730232D2E7FA22E891458F434FE0BC032FCD4
S113074009C0832D8E7EA82E05C0B82CA32C03C00F
S1130750B82C01C0B92CA4FE0FC0FE01E80DF11D98
S11307608081803321F49A2D997EA92E09C0A2FE9E
S113077006C0B394B39404C08A2D867809F0B39468
S1130780A3FC11C0A0FE06C0B21488F4280C922C5D
S11307909B180EC0B21460F4B60180E290E00E948F
S11307A03704B394F7CFB21418F42B1802C0982C62
S11307B0212CA4FE10C0B60180E390E00E9437040F
S11307C0A2FE17C0A1FC03C088E790E002C088E540
S11307D090E0B6010CC08A2D867859F0A1FE02C0C3
S11307E08BE201C080E2A7FC8DE2B60190E00E949A
S11307F03704891438F4B60180E390E00E9437048A
S11308009A94F7CF8A94F301E80DF11D8081B60123
S113081090E00E9437048110F5CF222009F442CEE3
S1130820B60180E290E00E9437042A94F6CFF601E4
S11308308681978102C08FEF9FEF2B96E2E10C94A3
S1130840ED04FC010590615070400110D8F78095CB
S113085090958E0F9F1F0895FC0161507040019088
S11308600110D8F7809590958E0F9F1F08950F93D0
S11308701F93CF93DF93FB01238121FD03C08FEFEF
S11308809FEF2CC022FF16C04681578124813581F9
S11308904217530744F4A081B1819D012F5F3F4F5C
S11308A0318320838C93268137812F5F3F4F378399
S11308B0268314C08B01EC01FB010084F185E02D3B
S11308C00995892BE1F6D80116968D919C9117977D
S11308D0019617969C938E931697CE01DF91CF9134
S11308E01F910F910895FA01AA27283051F1203160
S11308F081F1E8946F936E7F6E5F7F4F8F4F9F4FB0
S1130900AF4FB1E03ED0B4E03CD0670F781F891FF1
S11309109A1FA11D680F791F8A1F911DA11D6A0FBF
S1130920711D811D911DA11D20D009F468943F9172
S11309302AE0269F11243019305D3193DEF6CF0171
S11309400895462F4770405D4193B3E00FD0C9F737
S1130950F6CF462F4F70405D4A3318F0495D31FDA4
S11309604052419302D0A9F7EACFB4E0A6959795F7
S1130970879577956795BA95C9F7009761057105CD
S113098008959B01AC010A2E069457954795379517
S11309902795BA95C9F7620F731F841F951FA01D71
S11309A008952F923F924F925F926F927F928F920F
S11309B09F92AF92BF92CF92DF92EF92FF920F93EA
S11309C01F93CF93DF93CDB7DEB7CA1BDB0B0FB6F4
S11309D0F894DEBF0FBECDBF09942A8839884888B1
S11309E05F846E847D848C849B84AA84B984C88447
S11309F0DF80EE80FD800C811B81AA81B981CE0F3E
S1130A00D11D0FB6F894DEBF0FBECDBFED01089522
S1070A10F894FFCF84
S1130A14256400000001000200030000010101023A
S1130A24010301000201020202030204000500069C
S1130A34000700040105010601070104020502067A
S1130A440207020000000000000000000000002370
S1130A540026002900250028002B004F010A005518
S1130A6400002400032700002A00F0000000000016
S1130A74000000000000000000000000009D01715F
S1130A840175010A00C500FF00C4009867C100E7AE
S1130A9418C200F10EC1007F000000000000000035
S1130AA40000000000000000000000000000C0007E
S1130AB4C600000000000000000000000000000068
S1130AC4000001C000C60000000000000000000097
S10B0AD4000000000000000016
S9030000FC
