:100000000C9434000C943E000C943E000C943E0082
:100010000C943E000C943E000C943E000C943E0068
:100020000C943E000C943E000C943E000C943E0058
:100030000C943E000C943E000C943E000C943E0048
:100040000C943E000C943E000C943E000C943E0038
:100050000C943E000C943E000C943E000C943E0028
:100060000C943E000C943E0011241FBECFEFD8E04C
:10007000DEBFCDBF0E9440000C945C000C940000D9
:100080008AB18FEF8AB99FEF85B195B92FEF33ED24
:1000900080E3215030408040E1F700C0000085B18E
:1000A000809585B92FEF33ED80E3215030408040BB
:0C00B000E1F700C00000E8CFF894FFCF9B
:00000001FF
