S01800004E616E6F4172636869746563747572652E737265639D
S11300000C9434000C9451000C9451000C94510045
S11300100C9451000C9451000C9451000C94510018
S11300200C9451000C9451000C9451000C94510008
S11300300C9451000C9451000C9451000C945100F8
S11300400C9451000C9451000C9451000C945100E8
S11300500C9451000C9451000C9451000C945100D8
S11300600C9451000C94510011241FBECFEFD8E022
S1130070DEBFCDBF11E0A0E0B1E0E8EDF2E002C0E8
S113008005900D92AE38B107D9F721E0AEE8B1E0A2
S113009001C01D92A639B207E1F70E9453000C94E7
S11300A06A010C940000CF93DF93CDB7DEB72E978F
S11300B00FB6F894DEBF0FBECDBFFE0131968EE0C1
S11300C0DF011D928A95E9F782E08C838EEC90E043
S11300D09A878987F0939301E093920181E191E0FB
S11300E00E94A70083E391E00E94AA0080E091E0CF
S11300F00E943A016FEF80E00E949500BFEF23ED6C
S113010080E3B15020408040E1F700C0000060E08F
S113011080E00E9495009FEFA3EDB0E39150A040D2
S1130120B040E1F700C00000E1CF90E0880F991FD4
S1130130FC01EB5FFE4F0190F081E02D2081FC017A
S1130140E55FFE4F0190F081E02D608308950E94E9
S1130150E4000895CF93DF93EC018A819B810E9490
S113016008018881998190938F0180938E01DF919A
S1130170CF91089520918E0130918F01F90195E17D
S1130180899FE00DF11D11240180F281E02D808111
S113019085FB882780F991E089270895CF93C82F9C
S11301A08A3019F48DE00E94CE0080E00E94BA00EB
S11301B08130D9F3E0918E01F0918F010380F481B5
S11301C0E02DC083CF910895CF93DF93DC01129685
S11301D08D919C911397892BC1F040E050E020E071
S11301E030E0ED91FC911197E40FF51FC081D181AE
S11301F0828188832F5F3F4F4D5F5F4F12968D91B1
S11302009C9113972817390760F3DF91CF910895D4
S1130210CF93DF931F92CDB7DEB7BC01DC011296FA
S11302208D919C911397892B09F140E050E020E0D7
S113023030E0DB01ED91FC91E40FF51FA081B18169
S11302408C9189838981928198239983898193816F
S1130250982B998389818C932F5F3F4F4C5F5F4F1D
S1130260FB01828193812817390718F30F90DF91DE
S1130270CF9108950F931F93CF93DF93E091920151
S1130280F0919301238121FF1BC08C01D0E0C0E0D9
S1130290F80181918F016091920170919301DB01CA
S11302A01896ED91FC911997882331F00995892BC3
S11302B079F3DFEFCFEFECCF8AE00995892B19F0C2
S11302C08FEF9FEF02C08D2F9C2FDF91CF911F9155
S10B02D00F910895F894FFCF8B
S11302D87361636100230026002900250028002B90
S11302E80015010A005500002400002700002A0018
S11302F800000000000000000000000000000000F2
S1130308000000630137013B010A00C500FF00C477
S1130318009867C100E718C200F10EC1007F000011
S113032800000000000000000000000000000000C1
S113033800000000C000C60000000000000000002B
S1130348000000000000000001C000C6000000001A
S1110358000000000000000000000000000093
S9030000FC
