:100000000C9434000C9449000C9449000C94490061
:100010000C9449000C9449000C9449000C9449003C
:100020000C9449000C9449000C9449000C9449002C
:100030000C9449000C9449000C9449000C9449001C
:100040000C9449000C9449000C9449000C9449000C
:100050000C9449000C9449000C9449000C944900FC
:100060000C9449000C94490011241FBECFEFD8E036
:10007000DEBFCDBF11E0A0E0B1E0E8E2F1E002C0F8
:1000800005900D92A232B107D9F70E944B000C9453
:1000900092000C9400008AB18FEF8AB980E091E061
:1000A0000E946B009FEF85B195B92FEF33ED80E390
:1000B000215030408040E1F700C0000085B18095BC
:1000C00085B92FEF33ED80E3215030408040E1F7D8
:1000D00000C00000E8CF0E946E000895CF93DF9328
:1000E000DC0112968D919C911397892BC1F040E011
:1000F00050E020E030E0ED91FC911197E40FF51F06
:10010000C081D181828188832F5F3F4F4D5F5F4FD8
:1001100012968D919C9113972817390760F3DF9100
:08012000CF910895F894FFCF80
:1001280004010A002B00000000000000000000008D
:1001380000000000000000000000000000000000B7
:020148000000B5
:00000001FF
