:100000000C9434000C9449000C9449000C94490061
:100010000C9449000C9449000C9449000C9449003C
:100020000C9449000C9449000C9449000C9449002C
:100030000C9449000C9449000C9449000C9449001C
:100040000C9449000C9449000C9449000C9449000C
:100050000C9449000C9449000C9449000C944900FC
:100060000C9449000C94490011241FBECFEFD8E036
:10007000DEBFCDBF11E0A0E0B1E0E0E5F1E002C0FD
:1000800005900D92AE32B107D9F70E944B000C9447
:10009000A6000C9400008AB18FEF8AB98CE091E041
:1000A0000E947F006FEF80E00E946D002FEF83EDD4
:1000B00090E3215080409040E1F700C0000060E0F4
:1000C00080E00E946D002FEF83ED90E3215080408F
:1000D0009040E1F700C00000E5CF90E0880F991F45
:1000E000FC01E050FF4F0190F081E02D2081FC01E8
:1000F000EA5FFE4F0190F081E02D608308950E9439
:1001000082000895CF93DF93DC0112968D919C912C
:100110001397892BC1F040E050E020E030E0ED91F2
:10012000FC911197E40FF51FC081D18182818883F2
:100130002F5F3F4F4D5F5F4F12968D919C911397AC
:100140002817390760F3DF91CF910895F894FFCF16
:10015000230026002900250028002B0010010A009A
:100160005500002400002700002A000000000000C5
:0E017000000000000000000000000000000081
:00000001FF
